:100000000C945D000C9485000C9485000C94850084
:100010000C9485000C9485000C9485000C9485004C
:100020000C9485000C9485000C9485000C9485003C
:100030000C9485000C9485000C9485000C9485002C
:100040000C9418030C9485000C9488030C946203A0
:100050000C9485000C9485000C9485000C9485000C
:100060000C9485000C94850000000008000201003B
:100070000003040700000000000000000000000072
:10008000250028002B0000000000240027002A0083
:10009000040404040404040402020202020203032E
:1000A0000303030301020408102040800102040836
:1000B0001020010204081020BA0311241FBECFEF44
:1000C000D8E0DEBFCDBF11E0A0E0B1E0E4EAFDE0A2
:1000D00002C005900D92A631B107D9F721E0A6E143
:1000E000B1E001C01D92A63DB207E1F710E0CDE5F9
:1000F000D0E004C02197FE010E94C506CC35D1078F
:10010000C9F70E9400040C94D0060C9400002FB78D
:10011000F89480911D0190911E01A0911F01B09152
:1001200020012FBF8093290190932A01A0932B01D6
:10013000B0932C01E0912101F09122010484F58516
:10014000E02D81E291E0099597FF26C02FB7F89442
:1001500080911D0190911E01A0911F01B09120017D
:100160002FBF4091290150912A0160912B0170917C
:100170002C01841B950BA60BB70B409125015091C8
:100180002601609127017091280184179507A60721
:10019000B70780F28FEF9FEF089590E0FC01EC55D8
:1001A000FF4F2491FC01E057FF4F8491882399F081
:1001B00090E0880F991FFC01EA57FF4FA591B49179
:1001C000FC01E458FF4F859194918FB7F894EC911E
:1001D000E22BEC938FBF089590E0FC01E859FF4FAC
:1001E0003491FC01EC55FF4F2491FC01E057FF4F87
:1001F000E491EE2309F43BC0332339F1333091F01D
:1002000038F43130A9F0323001F584B58F7D12C059
:10021000373091F03830A1F03430B9F4809180005B
:100220008F7D03C0809180008F77809380000DC008
:1002300084B58F7784BD09C08091B0008F7703C0EB
:100240008091B0008F7D8093B000F0E0EE0FFF1F33
:10025000E458FF4FA591B4918FB7F894EC916111D8
:1002600003C020952E2301C02E2B2C938FBF089501
:100270003FB7F8948091190190911A01A0911B0148
:10028000B0911C0126B5A89B05C02F3F19F001961F
:10029000A11DB11D3FBFBA2FA92F982F8827820F0C
:1002A000911DA11DB11DBC01CD0142E0660F771F5C
:1002B000881F991F4A95D1F708958F929F92AF9208
:1002C000BF92CF92DF92EF92FF920E9438014B01D2
:1002D0005C0185E0C82ED12CE12CF12C0E94380164
:1002E000DC01CB0188199909AA09BB09883E934012
:1002F000A105B10558F021E0C21AD108E108F108C2
:1003000088EE880E83E0981EA11CB11CC114D10494
:10031000E104F10419F7FF90EF90DF90CF90BF90C8
:10032000AF909F908F900895CF92DF92EF92FF92BF
:100330000F931F93CF93DF936C017A018B01C0E081
:10034000D0E0CE15DF0589F0D8016D918D01D60181
:10035000ED91FC910190F081E02DC6010995892B6A
:1003600011F47E0102C02196ECCFC701DF91CF913D
:100370001F910F91FF90EF90DF90CF900895089517
:1003800080E090E00895FC01538D448D252F30E0EE
:10039000842F90E0821B930B541710F0CF96089592
:1003A00001970895FC01918D828D981761F0828DDF
:1003B000DF01A80FB11D5D968C91928D9F5F9F7399
:1003C000928F90E008958FEF9FEF0895FC01918D3B
:1003D000828D981731F0828DE80FF11D858D90E0A8
:1003E00008958FEF9FEF0895FC01918D228D892F45
:1003F00090E0805C9F4F821B91098F73992708952D
:1004000081E291E00E94F40121E0892B09F420E0CF
:10041000822F0895FC01848DDF01A80FB11DA35A1E
:10042000BF4F2C91848D90E001968F739927848F14
:10043000A689B7892C93A089B1898C9180648C930B
:10044000938D848D981306C00288F389E02D8081F6
:100450008F7D80830895EF92FF920F931F93CF9328
:10046000DF93EC0181E0888F9B8D8C8D981305C004
:10047000E889F989808185FD24C0F62E0B8D10E076
:100480000F5F1F4F0F731127E02E8C8DE8120CC0E9
:100490000FB607FCFACFE889F989808185FFF5CF8F
:1004A000CE010E940A02F1CF8B8DFE01E80FF11DF3
:1004B000E35AFF4FF0820B8FEA89FB8980818062CB
:1004C00007C0EE89FF896083E889F98980818064AB
:1004D000808381E090E0DF91CF911F910F91FF9099
:1004E000EF900895CF93DF93EC01888D8823C9F0B6
:1004F000EA89FB89808185FD05C0A889B9898C912D
:1005000086FD0FC00FB607FCF5CF808185FFF2CFC7
:10051000A889B9898C9185FFEDCFCE010E940A028E
:10052000E7CFDF91CF91089580E090E0892B29F00B
:100530000E94000281110C94000008958EBD0000FD
:100540000DB407FEFDCF8EB508959CB59F7D9CBD73
:100550009CB5937F9CBD9CB59C7F9CBD9DB59160D7
:100560009DBD682F8091C0010E94EC008091D20156
:100570009091D3018230910538F0880F991F880F30
:10058000991F05970197F1F7089580E00C94A50253
:100590001F93CF93DF9300D0CDB7DEB76A838983F3
:1005A0000E94C50289818F7180620E949E02182F6D
:1005B0006A81862F0E949E0281E00E94A502812FFF
:1005C0000F900F90DF91CF911F9108951F93CF93BC
:1005D000DF931F92CDB7DEB789830E94C502898160
:1005E0000E949E02182F81E00E94A502812F0F9089
:1005F000DF91CF911F9108951F93CF93DF931F92A7
:10060000CDB7DEB789830E94C50289818F710E94B0
:100610009E028FEF0E949E02182F81E00E94A50289
:10062000812F0F90DF91CF911F9108950E94CB06EB
:100630001F920F920FB60F9211242F933F938F9317
:100640009F93AF93BF9380911D0190911E01A09144
:100650001F01B09120013091180123E0230F2D37A5
:1006600020F40196A11DB11D05C026E8230F0296B6
:10067000A11DB11D2093180180931D0190931E01AF
:10068000A0931F01B09320018091190190911A014C
:10069000A0911B01B0911C010196A11DB11D809379
:1006A000190190931A01A0931B01B0931C01BF91F3
:1006B000AF919F918F913F912F910F900FBE0F900F
:1006C0001F9018951F920F920FB60F9211242F931F
:1006D0003F934F935F936F937F938F939F93AF93CA
:1006E000BF93EF93FF9381E291E00E940A02FF9192
:1006F000EF91BF91AF919F918F917F916F915F919A
:100700004F913F912F910F900FBE0F901F90189512
:100710001F920F920FB60F9211242F938F939F93D6
:10072000EF93FF93E0913101F09132018081E091EC
:100730003701F091380182FD12C0908180913A0119
:100740008F5F8F7320913B01821751F0E0913A0146
:10075000F0E0EF5DFE4F958F80933A0101C08081FC
:10076000FF91EF919F918F912F910F900FBE0F905E
:100770001F901895E1E2F1E01382128288EE93E077
:10078000A0E0B0E084839583A683B78384E091E002
:100790009183808385EC90E09587848784EC90E05A
:1007A0009787868780EC90E0918B808B81EC90E03E
:1007B000938B828B82EC90E0958B848B86EC90E01F
:1007C000978B868B118E128E138E148EEEEBF1E0CA
:1007D00087E090E09183808388E090E09383828338
:1007E000168280E28783108685E0868785E090E028
:1007F000A0E0B0E0848B958BA68BB78B1186089513
:10080000CF93DF93CDB7DEB7AD970FB6F894DEBFC9
:100810000FBECDBF789484B5826084BD84B58160FD
:1008200084BD85B5826085BD85B5816085BD8091BB
:100830006E00816080936E00109281008091810033
:10084000826080938100809181008160809381002B
:10085000809180008160809380008091B1008460ED
:100860008093B1008091B00081608093B00080914E
:100870007A00846080937A0080917A00826080930D
:100880007A0080917A00816080937A0080917A006A
:10089000806880937A001092C100E0913101F0915C
:1008A000320182E08083E0912D01F0912E011082CF
:1008B000E0912F01F09130018FEC8083109239018B
:1008C000E0913501F091360186E08083E0913301BB
:1008D000F0913401808180618083E0913301F09157
:1008E0003401808188608083E0913301F09134018C
:1008F000808180688083E0913301F09134018081B0
:100900008F7D80838091BE019091BF012091C001B5
:100910003091C1018217930711F00E94CD008091A0
:10092000C0019091C1012091BE013091BF012817F3
:10093000390711F00E94CD001FB7F894809116017D
:10094000811124C0EAE9F0E08491EEEAF0E09491AC
:10095000E82FF0E0EE0FFF1FEA57FF4FA591B4918B
:10096000EC91E92321F461E08AE00E94EC008AE046
:100970000E94CD008CB580618CBD8CB580648CBD2F
:100980008DE00E94CD008BE00E94CD008091160189
:100990008F5F809316011FBF8091BE019091BF01B0
:1009A0002091C0013091C1018217930719F060E0D6
:1009B0000E94EC0081E00E94A5020E945D016CE0B3
:1009C00080E00E94C8026FE584E00E94C80286E0D1
:1009D0000E94FC02877D182F10628BE990E0A0E056
:1009E000B0E08093CE019093CF01A093D001B0935B
:1009F000D101612F86E00E94C80286E00E94FC02BD
:100A0000811709F460C186E00E94FC0286E00E9422
:100A1000FC0245E550E060E070E04093CE01509369
:100A2000CF016093D0017093D101682F677D86E07C
:100A30000E94C80286E00E94FC020E94C50280E576
:100A40000E949E0283E70E949E0281E00E94A5020E
:100A500060E08DE10E94C80260E08CE10E94C80263
:100A60001092C60160E787E00E94C8026CE485E04E
:100A70000E94C80282EE0E94E60281EE0E94E60217
:100A800080E00E94FC0281FD07C0682F626080E068
:100A90000E94C8020E945D0180E00E94FC02682F53
:100AA0006E7F80E00E94C8026EE085E00E94C8026E
:100AB00081EE8AA380EF8BA38CA388EE8DA38EA3F7
:100AC0001FA218A619A61091CC010E94C5028AE2A5
:100AD0000E949E027E0182E2E80EF11C6701112352
:100AE00039F01150F60181916F010E949E02F7CFFB
:100AF00081E00E94A5021091CC010E94C50280E312
:100B00000E949E02112329F01150F70181917F016B
:100B1000F7CF81E00E94A5026091C50181E10E94AA
:100B2000C8028AE0C82ED12CE12CF12C81E291E0A0
:100B30000E94F401181619060CF0C2C00E9487002A
:100B4000FC0197FD11C08D32910591F0C0970A9775
:100B500078F0E0912101F09122010284F385E02DEB
:100B600081E291E00995EACF80E090E0DC012DC0C0
:100B700020E030E0A90110E0E130F10509F0A7C064
:100B8000E0912101F09122010284F385E02D81E2C0
:100B900091E02AA73BA74CA75DA709950E94870073
:100BA000FC01C0972AA53BA54CA55DA50A9720F39B
:100BB000E130F10509F3112309F4A8C0882799272A
:100BC000DC01821B930BA40BB50B809317019C01D6
:100BD000AD0133274427552719A28E010F5D1F4F02
:100BE000CA01B901A70196010E94A306605DF80140
:100BF00062938F01211531054105510589F7309721
:100C000061F001900020E9F73197AF01401B510BD3
:100C1000B80181E291E00E94940142E050E062E17B
:100C200071E081E291E00E9494011091C501012FD1
:100C3000111101E08091C601811102C0101B01C099
:100C400010E00E94C50280EA0E949E02002321F06B
:100C5000809117010E949E02112329F080E00E94DA
:100C60009E021150F9CF81E00E94A5028091BE0141
:100C70009091BF012091C0013091C101821793076B
:100C800019F061E00E94EC008FEF0E94E602807391
:100C9000D9F38091BE019091BF012091C0013091A4
:100CA000C1018217930719F060E00E94EC0060E731
:100CB00087E00E94C80284FF03C081EE0E94E60222
:100CC0000E94940233CF81E08093C4019CCEED3228
:100CD000F105D1F0CF01C0970A9708F051CFAAE0F3
:100CE000B0E00E9489064F01FF0FAA08BB08DC0193
:100CF000CB01880D991DAA1DBB1D9C01AD01205380
:100D00003109410951093CCF11E03ACFDA01C9015B
:100D10005CCF0E949406A59F900DB49F900DA49F58
:100D2000800D911D11240895A29FB001B39FC001B1
:100D3000A39F700D811D1124911DB29F700D811D07
:100D40001124911D0895A1E21A2EAA1BBB1BFD01BF
:100D50000DC0AA1FBB1FEE1FFF1FA217B307E4079A
:100D6000F50720F0A21BB30BE40BF50B661F771FF2
:100D7000881F991F1A9469F76095709580959095D2
:100D80009B01AC01BD01CF010895EE0FFF1F05903F
:100D9000F491E02D099481E090E0F8940C94D00651
:040DA000F894FFCFF5
:100DA400000000002B029401C3017202F401D2017D
:060DB400E6010D0A00003B
:00000001FF
