:100000004AC1000079C1000077C1000075C100003D
:1000100073C1000071C100006FC100006DC100001C
:100020006BC1000069C1000067C1000065C100002C
:1000300063C100000C94440B5FC100005DC100006F
:100040005BC1000059C1000057C1000055C100004C
:100050000C94C10B51C100004FC100000C94F90E6B
:100060004BC100005BC6000030C6000045C1000067
:1000700043C1000041C100003FC100003DC100007C
:100080003BC1000039C1000037C1000035C100008C
:1000900033C1000031C100002FC100002DC100009C
:1000A0002BC1000029C1000027C1000025C10000AC
:1000B00023C1000021C100001FC100001DC10000BC
:1000C0001BC1000019C1000017C1000015C10000CC
:1000D00013C1000011C100000FC100000DC10000DC
:1000E0000BC10000CB02CF02D302D702DB02DF023A
:1000F000E30215041C0423042A04310449043804CF
:1001000049043F04670E6A0E590E5D0E610EA10E82
:100110006E0E720E780E7C0E800E860E8A0E8E0E7D
:10012000A10E940E980E9C0E084AD73B3BCE016E52
:1001300084BCBFFDC12F3D6C74319ABD56833DDA3E
:100140003D00C77F11BED9E4BB4C3E916BAAAABE4D
:10015000000000803F05A84CCDB2D44EB93836A976
:10016000020C50B9918688083CA6AAAA2ABE0000B3
:1001700000803F00000020002300260029002C0002
:100180002F003200000100000301060109010000F8
:100190000A0B02090C0D0E08070304010000000001
:1001A000000000000000000000000000000000004F
:1001B000000000000000000000001211100000000C
:1001C000000000000000000000000000000000002F
:1001D0000000000000002200250028002B002E0057
:1001E0003100340002010000050108010B0100008C
:1001F0002100240027002A002D00300033000101D7
:100200000000040107010A010505050507050808A6
:100210000808020202020A0A080804040404010190
:1002200001010101010103030303030303030407A5
:1002300007070C0C0C0C0C0C0C0C0202020206063C
:100240000606060606060B0B0B0B0B0B0B0B01022F
:1002500010202008081020401020408002010201D8
:100260000804020101020408102040808040201090
:1002700008040201800402018040201008040201E9
:100280000804020101020408102040800102040851
:1002900010204080351111241FBECFEFD1E2DEBF08
:1002A000CDBF00E00CBF13E0A0E0B2E0EAEAFCE260
:1002B00000E00BBF02C007900D92A634B107D9F73A
:1002C00024E0A6E4B3E001C01D92A73DB207E1F728
:1002D00011E0CBE4D1E000E006C021970109802FB6
:1002E000FE010E944716CA34D10780E00807A9F72B
:1002F0000E94430F0C94531683CECF92DF92EF925D
:10030000FF920F931F93CF93DF936C017A018B01C0
:10031000C0E0D0E0CE15DF0589F0D8016D918D01E8
:10032000D601ED91FC910190F081E02DC601199567
:10033000892B11F47E0102C02196ECCFC701DF9119
:10034000CF911F910F91FF90EF90DF90CF90089584
:10035000089580E090E00895FC01538D448D252F91
:1003600030E0842F90E0821B930B541710F0CF964F
:10037000089501970895FC01918D828D981761F081
:10038000828DDF01A80FB11D5D968C91928D9F5FCC
:100390009F73928F90E008958FEF9FEF0895FC0177
:1003A000918D828D981731F0828DE80FF11D858D2A
:1003B00090E008958FEF9FEF0895FC01918D228DBD
:1003C000892F90E0805C9F4F821B91098F73992742
:1003D000089580E793E0F1DF21E0892B09F420E024
:1003E000822F0895FC01848DDF01A80FB11DA35A4F
:1003F000BF4F2C91848D90E001968F739927848F45
:10040000A689B7892C93A089B1898C9180648C933B
:10041000938D848D981306C00288F389E02D808126
:100420008F7D80830895EF92FF920F931F93CF9358
:10043000DF93EC0181E0888F9B8D8C8D981305C034
:10044000E889F989808185FD23C0F62E0B8D10E0A7
:100450000F5F1F4F0F731127E02E8C8DE8120BC01A
:100460000FB607FCFACFE889F989808185FFF5CFBF
:10047000CE01B8DFF2CF8B8DFE01E80FF11DE35AFC
:10048000FF4FF0820B8FEA89FB898081806207C071
:10049000EE89FF896083E889F9898081806480839F
:1004A00081E090E0DF91CF911F910F91FF90EF904D
:1004B0000895CF93DF93EC01888D8823C1F0EA89FA
:1004C000FB89808185FD05C0A889B9898C9186FD4D
:1004D0000EC00FB607FCF5CF808185FFF2CFA8894B
:1004E000B9898C9185FFEDCFCE017CDFE8CFDF911C
:1004F000CF91089580E090E0892B19F06ADF811197
:1005000025C080E090E0892B41F080E090E0892BCD
:1005100021F00E94000081111CC080E090E0892B36
:1005200041F080E090E0892B21F00E9400008111D1
:1005300013C080E090E0892BA1F080E090E0892B4F
:1005400081F00E94000081110AC008950E940000FD
:10055000D8CF0E940000E1CF0E940000EACF0C94A7
:1005600000000895CF93DF93DC014770552766277D
:100570007727FA013197CD91DC911197E730F1059A
:1005800030F48827EE58FF4F8F4F0C944716EC81BC
:10059000FD8161E01BC0EC81FD8165E017C0EC814D
:1005A000FD8164E013C0EC81FD8166E00FC0EC8149
:1005B000FD8162E00BC0EC81FD816AE007C0EC8147
:1005C000FD8168E003C0EC81FD8169E0CD01DF9130
:1005D000CF911994CF93DF93EC01CB01BA0126E0C0
:1005E00030E040E050E00E949012623071058105D9
:1005F000910559F18CF46115710581059105F1F0B2
:100600006130710581059105C1F5E881F9810480AA
:10061000F581E02D65E02DC06430710581059105FF
:1006200011F1D4F0653071058105910531F5E8814E
:10063000F9810480F581E02D66E01BC0E881F98135
:100640000480F581E02D64E014C0E881F981048024
:10065000F581E02D61E00DC0E881F9810480F5812C
:10066000E02D63E006C0E881F9810480F581E02D8A
:1006700062E0CE01DF91CF911994DF91CF9108957F
:100680004370552766277727DC01ED91FC910480A4
:10069000F581E02D423051056105710571F043305F
:1006A00051056105710559F041305105610571052C
:1006B00011F065E005C066E003C06AE001C069E0D2
:1006C0001994CF93DF93EC01CB01BA0123E030E022
:1006D00040E050E00E949012613071058105910563
:1006E00081F0623071058105910591F0672B682BCF
:1006F000692BC1F4E881F9810480F581E02D64E083
:100700000DC0E881F9810480F581E02D61E006C02B
:10071000E881F9810480F581E02D62E0CE01DF916E
:10072000CF911994DF91CF91089543705527662793
:100730007727DC01ED91FC910480F581E02D4230BA
:1007400051056105710571F0433051056105710571
:1007500059F0413051056105710511F062E005C0A5
:1007600063E003C061E001C060E01994CF93DF93C0
:10077000EC01E881F9810480F581E02D8A81811105
:1007800002C060E001C062E0CE011995E881F98104
:100790000480F581E02D8A81811102C061E001C0F1
:1007A00063E0CE0119958CA59DA58230910538F0A6
:1007B000880F991F880F991F05970197F1F7E88116
:1007C000F9810480F581E02D8A81811102C060E009
:1007D00001C062E0CE01DF91CF911994CF93DF93F6
:1007E000EC0120E030E0A9016C897D898E899F8928
:1007F0000E94641518161CF4E8A9F9A902C0EAA918
:10080000FBA9DF91CF9119940F931F93DC011396ED
:100810000C91139710E009301105D8F5F8018827DD
:10082000E758FF4F8F4F0C944716ED91FC911197AD
:100830000084F185E02D29C0ED91FC91119702848F
:10084000F385E02D22C0ED91FC9111970484F5858C
:10085000E02D1BC0ED91FC9111970684F785E02DEA
:1008600014C0ED91FC9111970088F189E02D0DC025
:10087000ED91FC9111970288F389E02D06C0ED916E
:10088000FC9111970488F589E02DCD011F910F91FE
:1008900019941F910F910895CF92DF92EF92FF92DA
:1008A0000F931F93CF93DF93FC012381243041F0FA
:1008B000283031F0233031F0263021F012E003C02F
:1008C00014E001C013E0EC012896E12CF12CC62EB7
:1008D000D12C01E0C6010E2C02C0959587950A9493
:1008E000E2F7688180FD6027FE01349780810E94D5
:1008F000390EFFEFEF1AFF0A2196E11658F3DF9148
:10090000CF911F910F91FF90EF90DF90CF900895BE
:10091000CF93DF93FC012381222301F1EC01848139
:10092000B7D78D81B5D78B81843011F0883021F411
:100930008E81AED78F8105C0833011F0863011F4DF
:100940008E81A6D78FA58F3F49F0A2D76EA581E0F3
:1009500068278FA5DF91CF910C94390EDF91CF914D
:100960000895CF93DF93FC012381222399F0EC01BA
:100970000190F081E02D0480F581E02D60E0199573
:100980008FA58F3F39F084D76EA58FA5DF91CF91CA
:100990000C94390EDF91CF9108950E944F16CF929B
:1009A000DF92EF92FF920F931F93CF93DF9390917B
:1009B0005C0381E0892780935C0360915C038DE098
:1009C0000E94390E10926F0310926E038DE30E9405
:1009D000B50E6C018FE30E94B50E7C0181E40E948C
:1009E000B50E8C0180E40E94B50EEC01B601DD0C61
:1009F000880B990B0E94561420E030E040E951E446
:100A00000E94EE129B01AC0160E070E080EA94E489
:100A10000E94BB1320E030E040E05FE30E94ED1253
:100A20006093560370935703809358039093590330
:100A3000B701FF0C880B990B0E94561420E030E0A0
:100A400040E851E40E94EE129B01AC0160E070E8C6
:100A500089E894E40E94BB1360935203709353039C
:100A60008093540390935503B801110F880B990B91
:100A70000E94561420E030E040EB51E40E94EE1258
:100A80009B01AC0160E070E88BE395E40E94BB132E
:100A900020E030E040E050E40E94ED1260934E030D
:100AA00070934F038093500390935103BE01DD0F69
:100AB000880B990B0E94561420E030E048E052E485
:100AC0000E94ED129B01AC0160E070EC83EF94E4B6
:100AD0000E94BB136B017C0120E030E0A9010E9461
:100AE000B41387FD09C0C0924A03D0924B03E09231
:100AF0004C03F0924D030CC080E090E0A0ECB0E419
:100B000080934A0390934B03A0934C03B0934D03FF
:100B100020E030E040EA50E460914A0370914B03DA
:100B200080914C0390914D030E94B41387FF16C02F
:100B300080916F0382FD12C080E392E00E94FF0D5E
:100B400060914A0370914B0380914C0390914D0347
:100B50000E94F20D80916F03846003C080916F0347
:100B60008B7F80936F0320E030E040EA50E4609197
:100B70004E0370914F0380915003909151030E9456
:100B8000B41387FF16C080916F0383FD12C087E402
:100B900092E00E94FF0D60914E0370914F0380918F
:100BA0005003909151030E94F20D80916F03886071
:100BB00003C080916F03877F80936F0320E030E054
:100BC00040EA50E4609156037091570380915803B6
:100BD000909159030E94B41387FF04C080916F0362
:100BE00080FF04C080916F038E7F10C08DE592E07E
:100BF0000E94FF0D60915603709157038091580336
:100C000090915903EFD780916F03816080936F03B8
:100C100020E030E040EA50E46091520370915303C9
:100C200080915403909155030E94B41387FF14C020
:100C300080916F0381FD10C084E792E0E0D760915E
:100C40005203709153038091540390915503CAD776
:100C500080916F03826003C080916F038D7F8093CA
:100C60006F0380916F03811110C080916E038160CA
:100C700080936E0380916E038B7F80936E038091CF
:100C80005A0390915B03019713C080916F0380FF1B
:100C900013C080916E038E7F80936E0380916E03EC
:100CA000846080936E0380915A0390915B03019658
:100CB00090935B0380935A03DF91CF911F910F9123
:100CC000FF90EF90DF90CF9008951F920F920FB694
:100CD0000F9211240BB60F922F933F934F935F9374
:100CE0006F937F938F939F93AF93BF93EF93FF93F4
:100CF00080E793E077DBFF91EF91BF91AF919F91F8
:100D00008F917F916F915F914F913F912F910F90B4
:100D10000BBE0F900FBE0F901F9018951F920F9251
:100D20000FB60F9211240BB60F922F938F939F93B0
:100D3000EF93FF93E0918003F09181038081E09134
:100D40008603F091870382FD12C090818091890310
:100D50008F5F8F7320918A03821751F0E09189038E
:100D6000F0E0E059FC4F958F8093890301C08081AA
:100D7000FF91EF919F918F912F910F900BBE0F904C
:100D80000FBE0F901F9018952F923F924F925F9237
:100D90006F927F928F929F92AF92BF92CF92DF928B
:100DA000EF92FF920F931F93CF93DF9300D01F9288
:100DB000CDB7DEB71C01FC01C088D188E288F3887A
:100DC00084859585A685B785C81AD90AEA0AFB0ADB
:100DD00064897589868997899B01AC010E946F158A
:100DE0004B015C01F101648D758D868D978D9B01A2
:100DF000AC010E94EE129B01AC01C501B4010E943E
:100E0000BB130E942314C114D104E104F104A1F422
:100E100062307105810591050CF07CC0F10114A2CE
:100E200015A216A217A2148A158A168A178A14AA5E
:100E300015AA16AA17AAFFC0F10104A915A926A987
:100E400037A91C141D041E041F0404F510161106F6
:100E5000120613064CF46C157D058E059F055CF596
:100E60002281211157C027C0011511052105310527
:100E700009F450C06C157D058E059F050CF04AC025
:100E8000F1018281882309F445C039C0101611068A
:100E900012061306FCF40027112798010C191D09EE
:100EA0002E093F09601771078207930724F4F101A7
:100EB0002281222379F19B01AC0188279927DC014B
:100EC000821B930BA40BB50BF10184AB95ABA6ABC6
:100ED000B7AB20C00115110521053105D9F08824D3
:100EE000992454018C189D08AE08BF08681579052F
:100EF0008A059B057CF4F101828181110BC030953C
:100F00002095109501951F4F2F4F3F4F04AB15AB08
:100F100026AB37ABF10184A895A8A6A8B7A8811481
:100F20009104A104B10491F480AD91ADA2ADB3AD33
:100F300084AF95AFA6AFB7AF81E01C141D041E04AB
:100F40001F040CF080E0F101828341C0F101C4ACC8
:100F5000D5ACE6ACF7ACA7019601C701B6010E947B
:100F6000EE122B013C01C501B4010E94561420E091
:100F700030E040E850E40E946F1520E030E040E8A7
:100F80005FE30E94EE129B01AC01C301B2010E941B
:100F9000BB139B01AC01C701B6010E94ED127B019E
:100FA0008C01F101E05CFF4F60807180C280D380D2
:100FB0009301A6010E946415181614F073018601AE
:100FC000A701B801F10144AF55AF66AF77AFFFEFAE
:100FD0008F1A9F0AAF0ABF0AF10184AA95AAA6AA8E
:100FE000B7AA24AD35AD46AD57ADCA01B9012983C5
:100FF0003A834B835C830E942814F10164A375A398
:1010000086A397A329813A814B815C8160E074E2D9
:1010100084E799E40E94BB13F101648B758B868B86
:10102000978B2281211107C0DC01CB01B058848B42
:10103000958BA68BB78B0F900F900F900F90DF9131
:10104000CF911F910F91FF90EF90DF90CF90BF90C5
:10105000AF909F908F907F906F905F904F903F9058
:101060002F9008954F925F926F927F928F929F92EE
:10107000AF92BF92CF92DF92EF92FF92CF93DF9326
:10108000EC016A017B0120E030E0A901C701B60153
:101090000E94B41387FF04C0F7FAF094F7F8F094B5
:1010A0008C8C9D8CAE8CBF8CA7019601C501B401C0
:1010B0000E94B413882309F448C06CA97DA98EA9A5
:1010C0009FA90E9456142B013C01A7019601C5015E
:1010D000B4010E94BB139B01AC01C301B2010E9489
:1010E0006F150E9423146CAB7DAB8EAB9FABA70139
:1010F000960160E070E080E090E40E94BB130E94E3
:10110000DC1526E53EE04DE25FE30E946F1520E02E
:1011100034E244E759E40E946F1568AF79AF8AAFB3
:101120009BAFCC8EDD8EEE8EFF8ECE01DF91CF9108
:10113000FF90EF90DF90CF90BF90AF909F908F90F7
:101140007F906F905F904F901FCEDF91CF91FF9077
:10115000EF90DF90CF90BF90AF909F908F907F9057
:101160006F905F904F900895CF92DF92EF92FF9231
:10117000CF93DF93EC018CA19DA1AEA1BFA1892BE0
:101180008A2B8B2BC9F110D66B017C0188A599A500
:10119000AAA5BBA5B701A601481B590B6A0B7B0B7F
:1011A0008CA19DA1AEA1BFA1481759076A077B0773
:1011B00018F12A818C859D85AE85BF85222321F07B
:1011C0000196A11DB11D03C00197A109B1098C872A
:1011D0009D87AE87BF87E881F9814C855D856E85E7
:1011E0007F850680F781E02DCE011995C8A6D9A686
:1011F000EAA6FBA6CE01C8DD20E030E0A9016C899B
:101200007D898E899F890E94B413811110C081E06D
:10121000C888D988EA88FB884C855D856E857F857E
:10122000C416D506E606F70619F480E001C081E091
:10123000DF91CF91FF90EF90DF90CF9008950F93C3
:101240001F93FC010485158526853785400F511FA6
:10125000621F731F008911892289338904171507BA
:101260002607370739F0408B518B628B738B1F91A8
:101270000F918ACD1F910F9108958F929F92AF92F7
:10128000BF92CF92DF92EF92FF92CF93DF93EC0168
:101290008C889D88AE88BF8820E030E0A901C50118
:1012A000B4010E94B413882309F43EC0A50194013F
:1012B000C501B4010E946F156B017C016C8D7D8DA1
:1012C0008E8D9F8D9B01AC010E94EE129B01AC01A3
:1012D000C701B6010E94BB130E9423146B017C015D
:1012E0002FEFC21AD20AE20AF20A20E030E0A90186
:1012F000C501B4010E94641518161CF4B701A601BB
:1013000007C044275527BA014C195D096E097F09AA
:10131000CE01DF91CF91FF90EF90DF90CF90BF9003
:10132000AF909F908F908BCFDF91CF91FF90EF90F8
:10133000DF90CF90BF90AF909F908F90089586E6FA
:1013400094E09BDF82E294E098CFCF93DF93C1E0FB
:10135000D0E0CD2BA1F086E694E006DF811104C039
:10136000EEDFC0E0D0E002C0C1E0D0E082E294E075
:10137000FBDE8111EECFE3DFC0E0D0E0EACFDF910A
:10138000CF9108958F929F92AF92BF92CF92DF92AA
:10139000EF92FF926B017C018AE892E030D442E048
:1013A000C701B6015DD383E493E029D460916C0357
:1013B00070916D03072E000C880B990B0E94561438
:1013C0009B01AC01C701B6010E94ED124B015C010B
:1013D00020E030E044E353E40E94641518163CF426
:1013E00020E030E044EB53E4C501B401EDCF20E050
:1013F00030E044E353ECC501B4010E94B41387FF0D
:101400000BC020E030E044EB53E4C501B4010E947E
:10141000EE124B015C01EBCF23E333E34BEA50E4E4
:10142000C501B4010E946F150E9423144B015C0199
:10143000AB01BC0186E694E002DF44275527BA01E0
:10144000481959096A097B0982E294E0F8DE7DDFD8
:1014500020E030E0A901C701B6010E94B41387FF64
:101460000BC020E030E044EB53E4C701B6010E941A
:10147000EE126B017C01ECCF20E030E044EB53E452
:10148000C701B6010E94641518165CF420E030E034
:1014900044EB53E4C701B6010E94ED126B017C01DD
:1014A000EBCFC701B6010E94231470936D036093C4
:1014B0006C03FF90EF90DF90CF90BF90AF909F9024
:1014C0008F9008954F925F926F927F928F929F922A
:1014D000AF92BF92CF92DF92EF92FF925C01E6E66D
:1014E000F4E01486158616861786108A118A128AE9
:1014F000138A14AA15AA16AA17AA14A215A216A22C
:1015000017A2148A158A168A178AE2E2F4E0148672
:10151000158616861786108A118A128A138A14AACB
:1015200015AA16AA17AA14A215A216A217A2148AFF
:10153000158A168A178A6C01990FEE08FF08B70101
:10154000A60186E694E07BDEB701A60182E294E084
:1015500076DE8BE992E053D3C50152D3F6DE60917B
:101560006C0370916D03072E000C880B990B0E9481
:1015700056142BED3FE049E450E40E946F1520E043
:1015800030E044E353E40E94BB132B013C010E9472
:10159000B8134B015C01C701B6010E9456146B01E0
:1015A0007C01C301B2010E94D2152B013C01A701AD
:1015B0009601C501B4010E946F152DEC3CE044E694
:1015C00054E40E94BB139B01AC01609168037091CD
:1015D000690380916A0390916B030E94EE126093FD
:1015E00068037093690380936A0390936B03A70168
:1015F0009601C301B2010E946F152DEC3CE044E658
:1016000054E40E94BB139B01AC0160916403709190
:1016100065038091660390916703E0D7609364034C
:101620007093650380936603909367038BEA92E05F
:10163000E6D2609168037091690380916A0390918A
:101640006B0342E00DD285EB92E0D9D26091640346
:1016500070916503809166039091670342E000D228
:1016600081EC92E0CCD280916C0390916D03FF905D
:10167000EF90DF90CF90BF90AF909F908F907F9032
:101680006F905F904F90BCC21F920F920FB60F9257
:1016900011240BB60F922F933F934F935F936F9349
:1016A0007F938F939F93AF93BF93EF93FF93E091BB
:1016B0005D03F0915E031995FF91EF91BF91AF919A
:1016C0009F918F917F916F915F914F913F912F915A
:1016D0000F900BBE0F900FBE0F901F901895DC015E
:1016E00070E0FB01E25BFD4FE4911496EC931497DC
:1016F00050E0FA01E25BFD4FE4911596EC931597EB
:10170000685F7D4FFB018491E82FF0E0EE0FFF1F33
:10171000EC52FE4F8591949117969C938E93169759
:10172000FA01E85FFD4F449150E0440F551F4C58BB
:101730005E4FFA018591949119969C938E93189718
:10174000FB016491E62FF0E0EE0FFF1FE251FE4F28
:10175000859194911B969C938E931A972F5F3F4F80
:1017600049E3429FC001439F900D11248E38FFE64C
:101770009F0710F08DE89FE61D969C938E931C9713
:1017800008951F920F920FB60F9211240BB60F926D
:101790002F933F934F935F936F937F938F939F9379
:1017A000AF93BF93EF93FF93E0915F03F0916003DA
:1017B0001995FF91EF91BF91AF919F918F917F917B
:1017C0006F915F914F913F912F910F900BBE0F90B2
:1017D0000FBE0F901F901895E0917003F091710368
:1017E0000190F081E02D682F80E793E01994009735
:1017F00069F0FC0101900020E9F73197AF01481B27
:10180000590BBC0180E793E00C947D0180E090E0EF
:1018100008958F929F92AF92BF920F931F93CF9391
:10182000DF93CDB7DEB7A1970FB6F894DEBF0FBE3A
:10183000CDBF19A2423008F44AE08E010F5D1F4F60
:10184000842E912CA12CB12CA501940195D6E62FC4
:10185000B901CA0101501109EA3014F4E05D01C078
:10186000E95CD801EC93232B242B252B69F7C801C5
:10187000BEDFA1960FB6F894DEBF0FBECDBFDF91DD
:10188000CF911F910F91BF90AF909F908F9008952F
:1018900090E0FC01E25BFD4F2491FC01E85FFD4F0D
:1018A0008491882399F090E0880F991FFC01E25100
:1018B000FE4FA591B491FC01EC52FE4F859194919D
:1018C0008FB7F894EC91E22BEC938FBF08958F9231
:1018D0009F92AF92BF92CF92DF92EF92FF921F93AF
:1018E000CF93DF93EC0120E030E048E454E46C89CE
:1018F0007D898E899F8938D7882309F450C0C88C88
:10190000D98CEA8CFB8C46015701B7FAB094B7F832
:10191000B09420E030E048E454E4C501B4010E94F2
:101920006415181654F020E030E048E454E4C70190
:10193000B6011AD787FD03C00FC07501640120E00E
:1019400030E0A901C701B6010FD781110BC01CA25D
:101950001DA21EA21FA21FC0C12CD12C88E4E82EFC
:1019600084E4F82EA701960160E074E284E799E42C
:1019700002D79F776DD76CA37DA38EA39FA311E0A1
:1019800020E030E0A901C701B6010E9464151816D5
:101990000CF010E01A83CC8ADD8AEE8AFF8ADF9190
:1019A000CF911F91FF90EF90DF90CF90BF90AF90BD
:1019B0009F908F900895CF92DF92EF92FF92CF93F6
:1019C000DF93EC0120E030E04AE754E4688D798D44
:1019D0008A8D9B8DC9D6882309F43BC080E090E0B6
:1019E000AAE7B4E4888F998FAA8FBB8FFE01E05CD1
:1019F000FF4F80839183A283B3838CA99DA9AEA955
:101A0000BFA9181619061A061B061CF56C897D89D4
:101A10008E899F899B01AC010E946F156B017C012F
:101A20006C8D7D8D8E8D9F8D9B01AC01D7D59B01DB
:101A3000AC01C701B6019FD606D76CAB7DAB8EABB0
:101A40009FABCE01DF91CF91FF90EF90DF90CF90D1
:101A50009BC9DF91CF91FF90EF90DF90CF900895D9
:101A60004F925F926F927F928F929F92AF92BF92AE
:101A7000CF92DF92EF92FF926B017C01B42E9B011B
:101A8000AC010E941D16882319F086E393E025C05F
:101A900026013701E89477F82FEF3FEF4FE75FE734
:101AA000C301B2010E941D1681110CC02FEF3FEF40
:101AB0004FE75FE7C301B20157D618161CF48AE35B
:101AC00093E00BC02FEF3FEF4FE75FE4C701B60194
:101AD000FBD718167CF48EE393E0FF90EF90DF9035
:101AE000CF90BF90AF909F908F907F906F905F90BE
:101AF0004F907DCE2FEF3FEF4FE75FECC701B60170
:101B000033D687FDE8CF20E030E0A901C701B60158
:101B10002BD687FF08C08DE25FDE4C01F7FAF09408
:101B2000F7F8F09402C0812C912CA12C60E070E0B9
:101B300080E09FE3AB1439F020E030E040E251E474
:101B40001AD6A394F7CF9B01AC01C701B60146D5C5
:101B50002B013C017DD66B017C01A6D69B01AC011B
:101B6000C301B2013AD52B013C014AE0C701B601DD
:101B700050DE7C01E80CF91CBB2021F08EE22CDE4B
:101B8000E80EF91EDB2CDD20F9F020E030E040E229
:101B900051E4C301B201A3D72B013C0159D64B013B
:101BA000A12CB12C4AE0C501B40133DEE80EF91EC8
:101BB000C501B40179D69B01AC01C301B2010DD5B9
:101BC0002B013C01DA94DFCFC701FF90EF90DF904B
:101BD000CF90BF90AF909F908F907F906F905F90CD
:101BE0004F900895CF93DF9342E03ADFEC0182E417
:101BF00093E0FDDD8C0F9D1FDF91CF910895F7CD10
:101C0000CF92DF92EF92FF92CF93DF936C01990F07
:101C1000EE08FF08F7FE10C08DE2DEDDEC0166275E
:101C20007727CB016C197D098E099F094AE0F1DD08
:101C30007C01EC0EFD1E05C04AE0C701B601E9DDDE
:101C40007C0182E493E0D3DD8E0D9F1DDF91CF9167
:101C5000FF90EF90DF90CF900895CF93DF93C7DD93
:101C6000EC0182E493E0C3DD8C0F9D1FDF91CF91E7
:101C70000895362F90E0FC01E257FE4F4491FC019D
:101C8000E25BFD4F2491FC01E85FFD4F94919923A5
:101C900009F46AC0442309F454C050E0FA013197B2
:101CA000E231F10508F04DC08827EE57FF4F8F4F06
:101CB000EEC7809180008F7707C0809180008F7D74
:101CC00003C080918000877F809380003AC084B5F4
:101CD0008F7702C084B58F7D84BD33C08091B00002
:101CE0008F7703C08091B0008F7D8093B00029C0B2
:101CF000809190008F7707C0809190008F7D03C006
:101D000080919000877F809390001BC08091A000FD
:101D10008F7707C08091A0008F7D03C08091A000C5
:101D2000877F8093A0000DC0809120018F7707C02E
:101D3000809120018F7D03C080912001877F809357
:101D40002001E92FF0E0EE0FFF1FEC52FE4FA591AE
:101D5000B4918FB7F894EC91311103C020952E23E4
:101D600001C02E2B2C938FBF0895863308F0865325
:101D700090917B00282F2870977F922B90937B0067
:101D80008770806480937C0080917A008064809367
:101D90007A0080917A0086FDFCCF809178002091B6
:101DA000790090E0922B08953FB7F8948091AF04AA
:101DB0009091B004A091B104B091B20426B5A89B53
:101DC00005C02F3F19F00196A11DB11D3FBFBA2FCD
:101DD000A92F982F8827820F911DA11DB11DBC012D
:101DE000CD0142E0660F771F881F991F4A95D1F7F2
:101DF00008951F920F920FB60F9211242F933F93C5
:101E00008F939F93AF93BF938091AB049091AC0459
:101E1000A091AD04B091AE043091AA0423E0230F49
:101E20002D3720F40196A11DB11D05C026E8230F12
:101E30000296A11DB11D2093AA048093AB04909338
:101E4000AC04A093AD04B093AE048091AF04909124
:101E5000B004A091B104B091B2040196A11DB11DCE
:101E60008093AF049093B004A093B104B093B204F4
:101E7000BF91AF919F918F913F912F910F900FBE86
:101E80000F901F901895789484B5826084BD84B5B6
:101E9000816084BD85B5826085BD85B5816085BD65
:101EA00080916E00816080936E001092810080911D
:101EB00081008260809381008091810081608093A5
:101EC0008100809180008160809380008091B100CA
:101ED00084608093B1008091B00081608093B000F5
:101EE0008091910082608093910080919100816047
:101EF0008093910080919000816080939000809108
:101F0000A10082608093A1008091A10081608093F4
:101F1000A1008091A00081608093A00080912101A8
:101F20008260809321018091210181608093210151
:101F30008091200181608093200180917A008460EB
:101F400080937A0080917A00826080937A008091F9
:101F50007A00816080937A0080917A008068809313
:101F60007A001092C10082E393DC83E391DC84E386
:101F70008FDC85E38DDC80E38BDC86E089DC87E029
:101F800087DC61E080E375DE8DE082DC61E08DE07E
:101F900070DE61E086E06DDE61E087E06ADE86E6A5
:101FA00094E009DD40E050E46CE975E486E694E0F5
:101FB00059D882E294E0FFDC40E050E46CE975E43B
:101FC00082E294E04FD886E694E081DC82E294E0FD
:101FD0007EDCE0912104EA3068F481E08E0F80938A
:101FE0002104F0E0EE0FFF1FE35FFB4F86E694E075
:101FF00091838083E0912104EA3068F481E08E0FC0
:1020000080932104F0E0EE0FFF1FE35FFB4F82E2BD
:1020100094E09183808360E080E32BDE61E08DE0DB
:1020200028DE80E1809381001092800083E080931D
:10203000630382E19AE79093620380936103909334
:1020400087008093860083E1809381008FEC94E089
:102050009093600380935F0381E080936F00E09131
:102060008003F091810382E08083E0917C03F09112
:102070007D031082E0917E03F0917F038FEC8083DB
:1020800010928803E0918403F091850386E08083B9
:10209000E0918203F0918303808180618083E091ED
:1020A0008203F0918303808188608083E0918203C2
:1020B000F0918303808180688083E0918203F091B6
:1020C000830380818F7D80836FDE4B015C0198EB01
:1020D000C92E9BE0D92EE12CF12C66DEDC01CB0170
:1020E00088199909AA09BB09883E9340A105B10541
:1020F00058F021E0C21AD108E108F10888EE880EF4
:1021000083E0981EA11CB11CC114D104E104F104A8
:1021100021F788E6482E55245394612C712C00E950
:1021200011E08DEC92E099DDEFD1A3019201F8D19D
:10213000072E000C880B990BB9D32BED3FE049E437
:1021400050E4CDD420E030E044E353E414D36B01F9
:102150007C010ED34B015C01C701B60123D56B0195
:102160007C0180916F0380FF0FC08CEF92E075DDE2
:1021700020E030E040E85FE3C501B4012ED24B011E
:102180005C01C4E0D0E002C0C1E0D0E080916F0308
:1021900081FF0EC08BE093E060DD20E030E040E89E
:1021A0005FE3C501B4011AD24B015C01C4E0D0E089
:1021B00080916F0383FF0EC089E193E04EDD20E044
:1021C00030E040E85FE3C701B60108D26B017C0153
:1021D000C4E0D0E080916F0382FF0EC087E293E0FD
:1021E0003CDD20E030E040E85FE3C701B601F5D117
:1021F0006B017C01C4E0D0E0A5019401C701B601E8
:1022000060D22BED3FE049E450E4B5D220E030E06D
:1022100044E353E464D46B017C01C130D10529F45B
:1022200061E086E026DD60E004C060E086E021DD5C
:1022300061E087E01EDD60916C0370916D03072EF5
:10224000000C880B990B32D39B01AC01C701B6017E
:10225000C5D198D8C09FC001C19F900DD09F900D4F
:10226000112430D90E947A025CCF8F929F92AF9254
:10227000BF92CF92DF92EF92FF920F931F93CF9373
:10228000DF93E0E7F3E01382128288EE93E0A0E0B0
:10229000B0E084839583A683B78388E092E091833E
:1022A000808385EC90E09587848784EC90E0978725
:1022B000868780EC90E0918B808B81EC90E0938B13
:1022C000828B82EC90E0958B848B86EC90E0978BF0
:1022D000868B118E128E138E148EE6E6F4E00AE1E0
:1022E00012E01183008388248394838214861586E8
:1022F00016861786108A118A128A138A148A158AFA
:10230000168A178AC12CD12C80E8E82E8FE3F82E8C
:10231000C08ED18EE28EF38E148E158E168E178E91
:10232000C0A2D1A2E2A2F3A214A215A216A217A2E1
:10233000C1E0D0E0D5A7C4A799249A9497A610A687
:1023400011A612A613A682E3848383E3858394E017
:10235000A92EA68225E0B22EB78214AA15AA16AA23
:1023600017AA10AE11AE12AE13AE14AE15AE16AE65
:1023700017AEC092A604D092A704E092A804F092EF
:10238000A90412821086118612861386CF010E943C
:102390008804B701A60186E694E00E943208E2E2D2
:1023A000F4E01183008383821486158616861786CF
:1023B000108A118A128A138A148A158A168A178A31
:1023C000C08ED18EE28EF38E148E158E168E178EE1
:1023D000C0A2D1A2E2A2F3A214A215A216A217A231
:1023E000D5A7C4A797A610A611A612A613A684E384
:1023F000848385E38583A682B78214AA15AA16AAC8
:1024000017AA10AE11AE12AE13AE14AE15AE16AEC4
:1024100017AEC0926204D0926304E0926404F0921A
:10242000650412821086118612861386CF010E94DF
:102430008804B701A60182E294E00E94320810925B
:10244000210424EF31E042E462E485EC94E047D9D2
:1024500024EF31E043E463E483EB94E0DF91CF9138
:102460001F910F91FF90EF90DF90CF90BF90AF90B2
:102470009F908F9034C98F929F92AF92BF92CF92CC
:10248000DF92EF92FF92CF93DF93EC016881798125
:102490008A819B81611571058105910521F464E2B2
:1024A00079ED8BE597E02DE133EF41E050E038D056
:1024B00049015A019B01AC01A7EAB1E44DD06B017F
:1024C0007C01ACEEB4EFA501940152D0DC01CB014C
:1024D0008C0D9D1DAE1DBF1DB7FF03C00197A10947
:1024E000B04888839983AA83BB83BC01CD019F77C1
:1024F000DF91CF91FF90EF90DF90CF90BF90AF90A2
:102500009F908F900895B7CF80E092E0B4CF609312
:1025100000027093010280930202909303020895D7
:10252000052E97FB16F400940FD057FD05D024D04C
:1025300007FC02D046F408C050954095309521958F
:102540003F4F4F4F5F4F08959095809570956195DF
:102550007F4F8F4F9F4F089531D0A59F900DB49F0F
:10256000900DA49F800D911D11240895B7FFF4CF05
:10257000F3DF821B930B0895A1E21A2EAA1BBB1B4B
:10258000FD010DC0AA1FBB1FEE1FFF1FA217B3073F
:10259000E407F50720F0A21BB30BE40BF50B661F55
:1025A000771F881F991F1A9469F760957095809519
:1025B00090959B01AC01BD01CF010895A29FB00190
:1025C000B39FC001A39F700D811D1124911DB29F67
:1025D000700D811D1124911D08955058BB27AA2705
:1025E0000ED027C2F0D130F0F5D120F031F49F3F6A
:1025F00011F41EF4C0C10EF4E095E7FBB6C1E92F5B
:102600003AD280F3BA17620773078407950718F068
:1026100071F49EF552C20EF4E0950B2EBA2FA02D48
:102620000B01B90190010C01CA01A0011124FF277F
:10263000591B99F0593F50F4503E68F11A16F0407A
:10264000A22F232F342F4427585FF3CF4695379579
:102650002795A795F0405395C9F77EF41F16BA0B3E
:10266000620B730B840BBAF09150A1F0FF0FBB1FEC
:10267000661F771F881FC2F70EC0BA0F621F731F35
:10268000841F48F4879577956795B795F7959E3F92
:1026900008F0B3CF9395880F08F09927EE0F979520
:1026A0008795089590D158F080E891E009F49EEF65
:1026B00091D128F040E851E059F45EEF09C05BC1C8
:1026C000FCC1E92FE078D7D168F3092E052AC1F3C0
:1026D000261737074807590738F00E2E07F8E02568
:1026E00069F0E025E0640AC0EF6307F8009407FA98
:1026F000DB01B9019D01DC01CA01AD01EF934AD0B4
:1027000098D10AD05F91552331F02BED3FE049E499
:1027100050FD49EC63CF0895DF93DD27B92FBF77D4
:1027200040E85FE31616170648075B0710F4D92F39
:10273000CFD19F938F937F936F937CD2E8E2F1E0A8
:102740001DD177D12F913F914F915F91D4D1DD234E
:1027500049F09058A2EA2AED3FE049EC5FE3D078D7
:102760005D274DDFDF9165C1DCD008F481E008957D
:1027700039D1E3956FC10CD05CC12CD140F023D18D
:1027800030F021F45F3F19F0F0C0511197C1F3C050
:1027900072D198F39923C9F35523B1F3951B550BC7
:1027A000BB27AA2762177307840738F09F5F5F4F24
:1027B000220F331F441FAA1FA9F333D00E2E3AF065
:1027C000E0E830D091505040E695001CCAF729D07F
:1027D000FE2F27D0660F771F881FBB1F26173707CE
:1027E0004807AB07B0E809F0BB0B802DBF01FF27FE
:1027F00093585F4F2AF09E3F510568F0B6C05EC106
:102800005F3FECF3983EDCF3869577956795B79537
:10281000F7959F5FC9F7880F911D9695879597F952
:102820000895E1E0660F771F881FBB1F62177307CB
:102830008407BA0720F0621B730B840BBA0BEE1FE0
:1028400088F7E095089504D06894B11137C10895D0
:102850001AD188F09F5790F0B92F9927B751A0F05F
:10286000D1F0660F771F881F991F1AF0BA95C9F724
:1028700012C0B13081F021D1B1E008951EC1672F9F
:10288000782F8827B85F39F0B93FCCF386957795D4
:102890006795B395D9F73EF49095809570956195BD
:1028A0007F4F8F4F9F4F0895E89409C097FB3EF4E8
:1028B00090958095709561957F4F8F4F9F4F99238D
:1028C000A9F0F92F96E9BB279395F695879577950B
:1028D0006795B795F111F8CFFAF4BB0F11F460FFCB
:1028E0001BC06F5F7F4F8F4F9F4F16C0882311F023
:1028F00096E911C0772321F09EE8872F762F05C037
:10290000662371F096E8862F70E060E02AF09A95D1
:10291000660F771F881FDAF7880F9695879597F9C6
:102920000895990F0008550FAA0BE0E8FEEF161660
:102930001706E807F907C0F012161306E407F507B3
:1029400098F0621B730B840B950B39F40A2661F027
:10295000232B242B252B21F408950A2609F4A140CA
:10296000A6958FEF811D811D089597F99F6780E8D7
:1029700070E060E008959FEF80EC0895DF93CF93BF
:102980001F930F93FF92EF92DF927B018C0168946B
:1029900005C0DA2EEF01AFD0FE01E894A591259194
:1029A000359145915591AEF3EF0129DEFE01970176
:1029B000A801DA9479F7DF90EF90FF900F911F91C3
:1029C000CF91DF91089500240A9416161706180671
:1029D0000906089500240A94121613061406050623
:1029E0000895C9CF50D0E8F3E894E0E0BB279F57A3
:1029F000F0F02AED3FE049EC06C0EE0FBB0F661F7A
:102A0000771F881F28F0B23A62077307840728F0FF
:102A1000B25A620B730B840BE3959A9572F7803868
:102A200030F49A95BB0F661F771F881FD2F7904826
:102A30000AC1092E0394000C11F4882352F0BB0F35
:102A400040F4BF2B11F460FF04C06F5F7F4F8F4FC6
:102A50009F4F0895EF93E0FF06C0A2EA2AED3FE002
:102A600049EC5FEBCCDDE5DF0F90039401FC90585F
:102A7000E5E5F1E0FBC057FD9058440F551F59F0B4
:102A80005F3F71F04795880F97FB991F61F09F3F5B
:102A900079F087950895121613061406551FF2CF84
:102AA0004695F1DF08C0161617061806991FF1CFD4
:102AB00086957105610508940895E894BB276627FB
:102AC0007727CB0197F908952CDF08F48FEF08954D
:102AD0009B01AC0160E070E080E89FE34CCE0BD03E
:102AE000A8CF71DF28F076DF18F0952309F03DCFED
:102AF00042CF1124E3CFBFDFA0F3959FD1F3950F11
:102B000050E0551F629FF001729FBB27F00DB11D71
:102B1000639FAA27F00DB11DAA1F649F6627B00D01
:102B2000A11D661F829F2227B00DA11D621F739FEA
:102B3000B00DA11D621F839FA00D611D221F749FF8
:102B40003327A00D611D231F849F600D211D822F3F
:102B5000762F6A2F11249F5750408AF0E1F0882386
:102B60004AF0EE0FFF1FBB1F661F771F881F915093
:102B70005040A9F79E3F510570F0F7CE9FCF5F3FC1
:102B8000ECF3983EDCF3869577956795B795F795C6
:102B9000E7959F5FC1F7FE2B880F911D969587954E
:102BA00097F908959F931EDF0F9007FCEE5F52CFB9
:102BB00011F40EF4E0CE45C066DFD0F39923D9F3CB
:102BC000CEF39F57550B87FF4AD00024A0E640EA7A
:102BD000900180585695979528F4805C660F771F72
:102BE000881F20F026173707480730F4621B730B45
:102BF000840B202931294A2BA69517940794202568
:102C000031254A2758F7660F771F881F20F02617AF
:102C10003707480730F4620B730B840B200D311D0E
:102C2000411DA09581F7B901842F9158880F969581
:102C3000879508959B01AC0152CF73DE880B990BE9
:102C400008959F3F31F0915020F4879577956795CF
:102C5000B795880F911D9695879597F9089591508E
:102C60005040660F771F881FD2F708959F938F9368
:102C70007F936F93FF93EF939B01AC0130DFEF9154
:102C8000FF917CDE2F913F914F915F9128CFEE0F06
:102C9000FF1F881F8BBF0790F691E02D199481E0EC
:0A2CA00090E0F89400C0F894FFCF14
:102CAA00010000000000000013027D01AC0159027E
:102CBA00DD01BB01CF0100000000B10488044C040F
:102CCA000404EE03B603950361034003EA02B20269
:102CDA00736574207269676874206F6273746163C4
:102CEA006C652062697400736574206C6566742073
:102CFA006F62737461636C652062697400736574D2
:102D0A002066726F6E74206F62737461636C6520E3
:102D1A0062697400736574206261636B206F627309
:102D2A007461636C652062697400476F696E67201D
:102D3A00746F20416E676C653A2000476F696E6751
:102D4A0020666F72776172643A2000526F626F7404
:102D5A0020583A20000920526F626F7420593A2095
:102D6A00000920526F626F7420543A20002D2D2DD5
:102D7A002D2D2D2D2D2D2D2D57616E6465722077E9
:102D8A00697468206F62737461636C65732D2D2D8D
:102D9A002D2D2D2D2D2D2D2D2D2D2D0046726F6EA5
:102DAA0074206F62737461636C650052656172208E
:102DBA006F62737461636C65004C656674206F6240
:102DCA00737461636C65005269676874206F62731B
:102DDA007461636C65006E616E00696E66006F7681
:062DEA0066000D0A000066
:00000001FF
